{
  "contractName": "TicTacToe",
  "abi": [
    {
      "inputs": [],
      "name": "newGame",
      "outputs": [
        {
          "internalType": "uint256",
          "name": "gameId",
          "type": "uint256"
        },
        {
          "internalType": "string",
          "name": "gameMessage",
          "type": "string"
        }
      ],
      "stateMutability": "nonpayable",
      "type": "function"
    },
    {
      "inputs": [
        {
          "internalType": "uint256",
          "name": "_gameId",
          "type": "uint256"
        }
      ],
      "name": "joinGame",
      "outputs": [
        {
          "internalType": "bool",
          "name": "success",
          "type": "bool"
        },
        {
          "internalType": "string",
          "name": "successMessage",
          "type": "string"
        }
      ],
      "stateMutability": "nonpayable",
      "type": "function"
    },
    {
      "inputs": [
        {
          "internalType": "uint256",
          "name": "_gameId",
          "type": "uint256"
        },
        {
          "internalType": "uint256",
          "name": "_xCoord",
          "type": "uint256"
        },
        {
          "internalType": "uint256",
          "name": "_yCoord",
          "type": "uint256"
        }
      ],
      "name": "makeMove",
      "outputs": [
        {
          "internalType": "bool",
          "name": "success",
          "type": "bool"
        },
        {
          "internalType": "string",
          "name": "successMessage",
          "type": "string"
        }
      ],
      "stateMutability": "nonpayable",
      "type": "function"
    },
    {
      "inputs": [
        {
          "internalType": "uint256",
          "name": "_gameId",
          "type": "uint256"
        }
      ],
      "name": "getGameData",
      "outputs": [
        {
          "internalType": "address",
          "name": "winner",
          "type": "address"
        },
        {
          "internalType": "enum TicTacToe.Player[3][3]",
          "name": "board",
          "type": "uint8[3][3]"
        },
        {
          "internalType": "address",
          "name": "playerOne",
          "type": "address"
        },
        {
          "internalType": "address",
          "name": "playerTwo",
          "type": "address"
        }
      ],
      "stateMutability": "view",
      "type": "function",
      "constant": true
    },
    {
      "inputs": [
        {
          "internalType": "uint256",
          "name": "_gameId",
          "type": "uint256"
        }
      ],
      "name": "getBoard",
      "outputs": [
        {
          "internalType": "enum TicTacToe.Player[3][3]",
          "name": "board",
          "type": "uint8[3][3]"
        }
      ],
      "stateMutability": "view",
      "type": "function",
      "constant": true
    }
  ],
  "bytecode": "0x608060405234801561001057600080fd5b506124f2806100206000396000f3fe608060405234801561001057600080fd5b50600436106100575760003560e01c806345e09e541461005c5780637d03f5f31461008c578063b6a65665146100ab578063cfc2f5ff146100de578063efaa55a01461010f575b600080fd5b61007660048036038101906100719190611dd0565b610140565b6040516100839190611fac565b60405180910390f35b610094610257565b6040516100a2929190612067565b60405180910390f35b6100c560048036038101906100c09190611dd0565b61040c565b6040516100d594939291906120d8565b60405180910390f35b6100f860048036038101906100f39190612120565b61084e565b60405161010692919061218e565b60405180910390f35b61012960048036038101906101249190611dd0565b610c43565b60405161013792919061218e565b60405180910390f35b610148611b82565b8180600154101561018e576040517f08c379a000000000000000000000000000000000000000000000000000000000815260040161018590612230565b60405180910390fd5b6000806000858152602001908152602001600020905080600201600380602002604051908101604052809291906000905b8282101561024a57838201600380602002604051908101604052809291908260038015610236576020028201916000905b82829054906101000a900460ff1660028111156102105761020f611e3d565b5b815260200190600101906020826000010492830192600103820291508084116101f05790505b5050505050815260200190600101906101bf565b5050505092505050919050565b60006060610263611baf565b60018160600190600281111561027c5761027b611e3d565b5b908160028111156102905761028f611e3d565b5b81525050600160008154809291906102a79061227f565b919050555080600080600154815260200190815260200160002060008201518160000160006101000a81548173ffffffffffffffffffffffffffffffffffffffff021916908373ffffffffffffffffffffffffffffffffffffffff16021790555060208201518160010160006101000a81548173ffffffffffffffffffffffffffffffffffffffff021916908373ffffffffffffffffffffffffffffffffffffffff16021790555060408201518160010160146101000a81548160ff0219169083600381111561037a57610379611e3d565b5b021790555060608201518160010160156101000a81548160ff021916908360028111156103aa576103a9611e3d565b5b02179055506080820151816002019060036103c6929190611c34565b509050506001546040518060400160405280601981526020017f47616d652063726561746564207375636365737366756c6c790000000000000081525092509250509091565b6000610416611b82565b6000808480600154101561045f576040517f08c379a000000000000000000000000000000000000000000000000000000000815260040161045690612230565b60405180910390fd5b600080600088815260200190815260200160002090506001600381111561048957610488611e3d565b5b8160010160149054906101000a900460ff1660038111156104ad576104ac611e3d565b5b036105dc578060000160009054906101000a900473ffffffffffffffffffffffffffffffffffffffff16816002018260000160009054906101000a900473ffffffffffffffffffffffffffffffffffffffff168360010160009054906101000a900473ffffffffffffffffffffffffffffffffffffffff1682600380602002604051908101604052809291906000905b828210156105c8578382016003806020026040519081016040528092919082600380156105b4576020028201916000905b82829054906101000a900460ff16600281111561058e5761058d611e3d565b5b8152602001906001019060208260000104928301926001038202915080841161056e5790505b50505050508152602001906001019061053d565b505050509250955095509550955050610846565b600260038111156105f0576105ef611e3d565b5b8160010160149054906101000a900460ff16600381111561061457610613611e3d565b5b03610743578060010160009054906101000a900473ffffffffffffffffffffffffffffffffffffffff16816002018260000160009054906101000a900473ffffffffffffffffffffffffffffffffffffffff168360010160009054906101000a900473ffffffffffffffffffffffffffffffffffffffff1682600380602002604051908101604052809291906000905b8282101561072f5783820160038060200260405190810160405280929190826003801561071b576020028201916000905b82829054906101000a900460ff1660028111156106f5576106f4611e3d565b5b815260200190600101906020826000010492830192600103820291508084116106d55790505b5050505050815260200190600101906106a4565b505050509250955095509550955050610846565b6000816002018260000160009054906101000a900473ffffffffffffffffffffffffffffffffffffffff168360010160009054906101000a900473ffffffffffffffffffffffffffffffffffffffff1682600380602002604051908101604052809291906000905b8282101561083657838201600380602002604051908101604052809291908260038015610822576020028201916000905b82829054906101000a900460ff1660028111156107fc576107fb611e3d565b5b815260200190600101906020826000010492830192600103820291508084116107dc5790505b5050505050815260200190600101906107ab565b5050505092509550955095509550505b509193509193565b6000606084806001541015610898576040517f08c379a000000000000000000000000000000000000000000000000000000000815260040161088f90612230565b60405180910390fd5b8560008060008381526020019081526020016000209050600060038111156108c3576108c2611e3d565b5b8160010160149054906101000a900460ff1660038111156108e7576108e6611e3d565b5b14610927576040517f08c379a000000000000000000000000000000000000000000000000000000000815260040161091e90612313565b60405180910390fd5b876000806000838152602001908152602001600020905061094781610f86565b73ffffffffffffffffffffffffffffffffffffffff163373ffffffffffffffffffffffffffffffffffffffff16146109b4576040517f08c379a00000000000000000000000000000000000000000000000000000000081526004016109ab9061237f565b60405180910390fd5b60008060008c81526020019081526020016000209050600060028111156109de576109dd611e3d565b5b816002018b600381106109f4576109f361239f565b5b018a60038110610a0757610a0661239f565b5b602091828204019190069054906101000a900460ff166002811115610a2f57610a2e611e3d565b5b14610a59576000604051806060016040528060318152602001612405603191399750975050610c36565b8060010160159054906101000a900460ff16816002018b60038110610a8157610a8061239f565b5b018a60038110610a9457610a9361239f565b5b602091828204019190066101000a81548160ff02191690836002811115610abe57610abd611e3d565b5b02179055506000610b7782600201600380602002604051908101604052809291906000905b82821015610b6e57838201600380602002604051908101604052809291908260038015610b5a576020028201916000905b82829054906101000a900460ff166002811115610b3457610b33611e3d565b5b81526020019060010190602082600001049283019260010382029150808411610b145790505b505050505081526020019060010190610ae3565b50505050611063565b905060006003811115610b8d57610b8c611e3d565b5b816003811115610ba057610b9f611e3d565b5b14610c1457808260010160146101000a81548160ff02191690836003811115610bcc57610bcb611e3d565b5b021790555060016040518060400160405280601181526020017f5468652067616d65206973206f7665722e000000000000000000000000000000815250985098505050610c36565b610c1d826111ee565b6001604051806020016040528060008152509850985050505b5050505050935093915050565b6000606082806001541015610c8d576040517f08c379a0000000000000000000000000000000000000000000000000000000008152600401610c8490612230565b60405180910390fd5b600033905060008060008781526020019081526020016000209050600073ffffffffffffffffffffffffffffffffffffffff168160000160009054906101000a900473ffffffffffffffffffffffffffffffffffffffff1673ffffffffffffffffffffffffffffffffffffffff1603610d8657818160000160006101000a81548173ffffffffffffffffffffffffffffffffffffffff021916908373ffffffffffffffffffffffffffffffffffffffff16021790555060016040518060400160405280601581526020017f4a6f696e656420617320706c61796572206f6e652e0000000000000000000000815250945094505050610f80565b8173ffffffffffffffffffffffffffffffffffffffff168160000160009054906101000a900473ffffffffffffffffffffffffffffffffffffffff1673ffffffffffffffffffffffffffffffffffffffff1603610e0357600160405180606001604052806027815260200161243660279139945094505050610f80565b600073ffffffffffffffffffffffffffffffffffffffff168160010160009054906101000a900473ffffffffffffffffffffffffffffffffffffffff1673ffffffffffffffffffffffffffffffffffffffff1603610ee157818160010160006101000a81548173ffffffffffffffffffffffffffffffffffffffff021916908373ffffffffffffffffffffffffffffffffffffffff16021790555060016040518060400160405280601581526020017f4a6f696e656420617320706c617965722074776f2e0000000000000000000000815250945094505050610f80565b8173ffffffffffffffffffffffffffffffffffffffff168160010160009054906101000a900473ffffffffffffffffffffffffffffffffffffffff1673ffffffffffffffffffffffffffffffffffffffff1603610f5e57600160405180606001604052806027815260200161245d60279139945094505050610f80565b6000604051806060016040528060398152602001612484603991399450945050505b50915091565b600060016002811115610f9c57610f9b611e3d565b5b8260010160159054906101000a900460ff166002811115610fc057610fbf611e3d565b5b03610ff1578160000160009054906101000a900473ffffffffffffffffffffffffffffffffffffffff16905061105e565b60028081111561100457611003611e3d565b5b8260010160159054906101000a900460ff16600281111561102857611027611e3d565b5b03611059578160010160009054906101000a900473ffffffffffffffffffffffffffffffffffffffff16905061105e565b600090505b919050565b60008061106f8361128e565b90506001600381111561108557611084611e3d565b5b81600381111561109857611097611e3d565b5b036110a75760019150506111e9565b600260038111156110bb576110ba611e3d565b5b8160038111156110ce576110cd611e3d565b5b036110dd5760029150506111e9565b6110e6836114b8565b9050600160038111156110fc576110fb611e3d565b5b81600381111561110f5761110e611e3d565b5b0361111e5760019150506111e9565b6002600381111561113257611131611e3d565b5b81600381111561114557611144611e3d565b5b036111545760029150506111e9565b61115d836116e2565b90506001600381111561117357611172611e3d565b5b81600381111561118657611185611e3d565b5b036111955760019150506111e9565b600260038111156111a9576111a8611e3d565b5b8160038111156111bc576111bb611e3d565b5b036111cb5760029150506111e9565b6111d483611ac2565b156111e35760039150506111e9565b60009150505b919050565b6001600281111561120257611201611e3d565b5b8160010160159054906101000a900460ff16600281111561122657611225611e3d565b5b0361125d5760028160010160156101000a81548160ff0219169083600281111561125357611252611e3d565b5b021790555061128b565b60018160010160156101000a81548160ff0219169083600281111561128557611284611e3d565b5b02179055505b50565b600080600090505b60038160ff1610156114ad57828160ff16600381106112b8576112b761239f565b5b60200201516001600381106112d0576112cf61239f565b5b602002015160028111156112e7576112e6611e3d565b5b838260ff16600381106112fd576112fc61239f565b5b60200201516000600381106113155761131461239f565b5b6020020151600281111561132c5761132b611e3d565b5b1480156113c05750828160ff166003811061134a5761134961239f565b5b60200201516002600381106113625761136161239f565b5b6020020151600281111561137957611378611e3d565b5b838260ff166003811061138f5761138e61239f565b5b60200201516001600381106113a7576113a661239f565b5b602002015160028111156113be576113bd611e3d565b5b145b80156114235750600060028111156113db576113da611e3d565b5b838260ff16600381106113f1576113f061239f565b5b60200201516000600381106114095761140861239f565b5b602002015160028111156114205761141f611e3d565b5b14155b1561149a576001600281111561143c5761143b611e3d565b5b838260ff16600381106114525761145161239f565b5b602002015160006003811061146a5761146961239f565b5b6020020151600281111561148157611480611e3d565b5b036114905760019150506114b3565b60029150506114b3565b80806114a5906123db565b915050611296565b50600090505b919050565b600080600090505b60038160ff1610156116d757826001600381106114e0576114df61239f565b5b60200201518160ff16600381106114fa576114f961239f565b5b6020020151600281111561151157611510611e3d565b5b836000600381106115255761152461239f565b5b60200201518260ff166003811061153f5761153e61239f565b5b6020020151600281111561155657611555611e3d565b5b1480156115ea5750826002600381106115725761157161239f565b5b60200201518160ff166003811061158c5761158b61239f565b5b602002015160028111156115a3576115a2611e3d565b5b836001600381106115b7576115b661239f565b5b60200201518260ff16600381106115d1576115d061239f565b5b602002015160028111156115e8576115e7611e3d565b5b145b801561164d57506000600281111561160557611604611e3d565b5b836000600381106116195761161861239f565b5b60200201518260ff16600381106116335761163261239f565b5b6020020151600281111561164a57611649611e3d565b5b14155b156116c4576001600281111561166657611665611e3d565b5b8360006003811061167a5761167961239f565b5b60200201518260ff16600381106116945761169361239f565b5b602002015160028111156116ab576116aa611e3d565b5b036116ba5760019150506116dd565b60029150506116dd565b80806116cf906123db565b9150506114c0565b50600090505b919050565b6000816001600381106116f8576116f761239f565b5b60200201516001600381106117105761170f61239f565b5b6020020151600281111561172757611726611e3d565b5b8260006003811061173b5761173a61239f565b5b60200201516000600381106117535761175261239f565b5b6020020151600281111561176a57611769611e3d565b5b1480156117fa5750816002600381106117865761178561239f565b5b602002015160026003811061179e5761179d61239f565b5b602002015160028111156117b5576117b4611e3d565b5b826001600381106117c9576117c861239f565b5b60200201516001600381106117e1576117e061239f565b5b602002015160028111156117f8576117f7611e3d565b5b145b801561185b57506000600281111561181557611814611e3d565b5b826000600381106118295761182861239f565b5b60200201516000600381106118415761184061239f565b5b6020020151600281111561185857611857611e3d565b5b14155b156118ce576001600281111561187457611873611e3d565b5b826001600381106118885761188761239f565b5b60200201516001600381106118a05761189f61239f565b5b602002015160028111156118b7576118b6611e3d565b5b036118c55760019050611abd565b60029050611abd565b816001600381106118e2576118e161239f565b5b60200201516001600381106118fa576118f961239f565b5b6020020151600281111561191157611910611e3d565b5b826000600381106119255761192461239f565b5b602002015160026003811061193d5761193c61239f565b5b6020020151600281111561195457611953611e3d565b5b1480156119e45750816002600381106119705761196f61239f565b5b60200201516000600381106119885761198761239f565b5b6020020151600281111561199f5761199e611e3d565b5b826001600381106119b3576119b261239f565b5b60200201516001600381106119cb576119ca61239f565b5b602002015160028111156119e2576119e1611e3d565b5b145b8015611a455750600060028111156119ff576119fe611e3d565b5b82600060038110611a1357611a1261239f565b5b6020020151600260038110611a2b57611a2a61239f565b5b60200201516002811115611a4257611a41611e3d565b5b14155b15611ab85760016002811115611a5e57611a5d611e3d565b5b82600160038110611a7257611a7161239f565b5b6020020151600160038110611a8a57611a8961239f565b5b60200201516002811115611aa157611aa0611e3d565b5b03611aaf5760019050611abd565b60029050611abd565b600090505b919050565b600080600090505b60038160ff161015611b775760005b60038160ff161015611b635760006002811115611af957611af8611e3d565b5b848360ff1660038110611b0f57611b0e61239f565b5b60200201518260ff1660038110611b2957611b2861239f565b5b60200201516002811115611b4057611b3f611e3d565b5b03611b5057600092505050611b7d565b8080611b5b906123db565b915050611ad9565b508080611b6f906123db565b915050611aca565b50600190505b919050565b60405180606001604052806003905b611b99611c82565b815260200190600190039081611b915790505090565b6040518060a00160405280600073ffffffffffffffffffffffffffffffffffffffff168152602001600073ffffffffffffffffffffffffffffffffffffffff16815260200160006003811115611c0857611c07611e3d565b5b815260200160006002811115611c2157611c20611e3d565b5b8152602001611c2e611b82565b81525090565b8260038101928215611c71579160200282015b82811115611c7057825182906003611c60929190611ca4565b5091602001919060010190611c47565b5b509050611c7e9190611d4d565b5090565b6040518060600160405280600390602082028036833780820191505090505090565b826003601f01602090048101928215611d3c5791602002820160005b83821115611d0d57835183826101000a81548160ff02191690836002811115611cec57611ceb611e3d565b5b02179055509260200192600101602081600001049283019260010302611cc0565b8015611d3a5782816101000a81549060ff0219169055600101602081600001049283019260010302611d0d565b505b509050611d499190611d71565b5090565b5b80821115611d6d5760008181611d649190611d8e565b50600101611d4e565b5090565b5b80821115611d8a576000816000905550600101611d72565b5090565b5060009055565b600080fd5b6000819050919050565b611dad81611d9a565b8114611db857600080fd5b50565b600081359050611dca81611da4565b92915050565b600060208284031215611de657611de5611d95565b5b6000611df484828501611dbb565b91505092915050565b600060039050919050565b600081905092915050565b6000819050919050565b600060039050919050565b600081905092915050565b6000819050919050565b7f4e487b7100000000000000000000000000000000000000000000000000000000600052602160045260246000fd5b60038110611e7d57611e7c611e3d565b5b50565b6000819050611e8e82611e6c565b919050565b6000611e9e82611e80565b9050919050565b611eae81611e93565b82525050565b6000611ec08383611ea5565b60208301905092915050565b6000602082019050919050565b611ee281611e1d565b611eec8184611e28565b9250611ef782611e33565b8060005b83811015611f28578151611f0f8782611eb4565b9650611f1a83611ecc565b925050600181019050611efb565b505050505050565b6000611f3c8383611ed9565b60608301905092915050565b6000602082019050919050565b611f5e81611dfd565b611f688184611e08565b9250611f7382611e13565b8060005b83811015611fa4578151611f8b8782611f30565b9650611f9683611f48565b925050600181019050611f77565b505050505050565b600061012082019050611fc26000830184611f55565b92915050565b611fd181611d9a565b82525050565b600081519050919050565b600082825260208201905092915050565b60005b83811015612011578082015181840152602081019050611ff6565b60008484015250505050565b6000601f19601f8301169050919050565b600061203982611fd7565b6120438185611fe2565b9350612053818560208601611ff3565b61205c8161201d565b840191505092915050565b600060408201905061207c6000830185611fc8565b818103602083015261208e818461202e565b90509392505050565b600073ffffffffffffffffffffffffffffffffffffffff82169050919050565b60006120c282612097565b9050919050565b6120d2816120b7565b82525050565b6000610180820190506120ee60008301876120c9565b6120fb6020830186611f55565b6121096101408301856120c9565b6121176101608301846120c9565b95945050505050565b60008060006060848603121561213957612138611d95565b5b600061214786828701611dbb565b935050602061215886828701611dbb565b925050604061216986828701611dbb565b9150509250925092565b60008115159050919050565b61218881612173565b82525050565b60006040820190506121a3600083018561217f565b81810360208301526121b5818461202e565b90509392505050565b7f496e76616c69642067616d652069642c20706c6561736520636f6e6669726d2060008201527f697420616e642074727920697420616761696e2e000000000000000000000000602082015250565b600061221a603483611fe2565b9150612225826121be565b604082019050919050565b600060208201905081810360008301526122498161220d565b9050919050565b7f4e487b7100000000000000000000000000000000000000000000000000000000600052601160045260246000fd5b600061228a82611d9a565b91507fffffffffffffffffffffffffffffffffffffffffffffffffffffffffffffffff82036122bc576122bb612250565b5b600182019050919050565b7f5468652067616d652068617320616c726561647920656e6465642e0000000000600082015250565b60006122fd601b83611fe2565b9150612308826122c7565b602082019050919050565b6000602082019050818103600083015261232c816122f0565b9050919050565b7f4974206973206e6f7420796f7572207475726e2e000000000000000000000000600082015250565b6000612369601483611fe2565b915061237482612333565b602082019050919050565b600060208201905081810360008301526123988161235c565b9050919050565b7f4e487b7100000000000000000000000000000000000000000000000000000000600052603260045260246000fd5b600060ff82169050919050565b60006123e6826123ce565b915060ff82036123f9576123f8612250565b5b60018201905091905056fe546865726520697320616c72656164792061206d61726b2061742074686520676976656e20636f6f7264696e617465732e596f75206172652061637475616c6c792074686520706c61796572206e756d626572206f6e652e596f75206172652061637475616c6c792074686520706c61796572206e756d6265722074776f2e4e6f206d6f726520506c617965722061726520616c6c6f77656420696e20746869732067616d652c2074727920616e6f74686572206f6e652ea26469706673582212204d7990cdb26e89534c5d82b573662c6a9090d8339ed67e976b562630813150e664736f6c63430008100033",
  "immutableReferences": {},
  "source": "// SPDX-License-Identifier: None\r\npragma solidity ^0.8.0;\r\n\r\ncontract TicTacToe {\r\n  enum Player {\r\n    emptySpace,\r\n    playerOne,\r\n    playerTwo\r\n  }\r\n\r\n  enum Winner {\r\n    undefined,\r\n    playerOne,\r\n    playerTwo,\r\n    draw\r\n  }\r\n\r\n  struct Game {\r\n    address playerOne;\r\n    address playerTwo;\r\n    Winner winner;\r\n    Player playerTurn;\r\n    Player[3][3] board;\r\n  }\r\n\r\n  mapping(uint256 => Game) private games;\r\n  uint256 private gameListLarge;\r\n\r\n  function newGame () public returns (uint256 gameId, string memory gameMessage) {\r\n    Game memory game;\r\n    game.playerTurn = Player.playerOne;\r\n    gameListLarge++;\r\n    games[gameListLarge] = game;\r\n    return(gameListLarge, \"Game created successfully\");\r\n  }\r\n  \r\n  function joinGame (uint256 _gameId) public validGameId(_gameId) returns (bool success, string memory successMessage){\r\n    address player = msg.sender;\r\n    Game storage game = games[_gameId];\r\n\r\n    if (game.playerOne == address(0)) {\r\n      game.playerOne = player;\r\n      return (true, \"Joined as player one.\");\r\n    } else if (game.playerOne == player) {\r\n      return (true, \"You are actually the player number one.\");\r\n    }else if (game.playerTwo == address(0)) {\r\n      game.playerTwo = player;\r\n      return (true, \"Joined as player two.\");\r\n    } else if (game.playerTwo == player) {\r\n      return (true, \"You are actually the player number two.\");\r\n    } \r\n    return (false, \"No more Player are allowed in this game, try another one.\");\r\n  }\r\n\r\n  function makeMove (uint256 _gameId, uint256 _xCoord, uint256 _yCoord)\r\n  public validGameId(_gameId) validGameOver(_gameId) validPlayerTurn(_gameId)\r\n  returns (bool success, string memory successMessage){\r\n    Game storage game = games[_gameId];\r\n\r\n    if (game.board[_xCoord][_yCoord] != Player.emptySpace) {\r\n      return (false, \"There is already a mark at the given coordinates.\");\r\n    }\r\n    game.board[_xCoord][_yCoord] = game.playerTurn;\r\n    Winner winner = isWinner(game.board);\r\n\r\n    if (winner != Winner.undefined) {\r\n      game.winner = winner;\r\n      return (true, \"The game is over.\");\r\n    }\r\n    changePlayerTurn(game);\r\n    return (true, \"\");\r\n  }\r\n\r\n  function getCurrentPlayerTurn (Game storage _game) private view returns (address player) {\r\n    if (_game.playerTurn == Player.playerOne) return _game.playerOne;\r\n    if (_game.playerTurn == Player.playerTwo) return _game.playerTwo;\r\n    return address(0);\r\n  }\r\n\r\n  function isWinner (Player[3][3] memory _board) private pure returns (Winner winner) {\r\n    Winner player = isWinnerInRow(_board);\r\n    if (player == Winner.playerOne) return Winner.playerOne;\r\n    if (player == Winner.playerTwo)return Winner.playerTwo;\r\n\r\n    player = isWinnerInCol(_board);\r\n    if (player == Winner.playerOne) return Winner.playerOne;\r\n    if (player == Winner.playerTwo) return Winner.playerTwo;\r\n\r\n    player = isWinnerInDiagonal(_board);\r\n    if (player == Winner.playerOne) return Winner.playerOne;\r\n    if (player == Winner.playerTwo) return Winner.playerTwo;\r\n\r\n    if (isBoardFull(_board)) return Winner.draw;\r\n    return Winner.undefined;\r\n  }\r\n\r\n  function isWinnerInRow (Player[3][3] memory _board) private pure returns (Winner winner) {\r\n    for (uint8 x = 0; x < 3; x++) {\r\n      if (\r\n        _board[x][0] == _board[x][1] &&\r\n        _board[x][1] == _board[x][2] &&\r\n        _board[x][0] != Player.emptySpace\r\n      ) {\r\n        if(_board[x][0] == Player.playerOne) return Winner.playerOne;\r\n        return Winner.playerTwo;\r\n      }\r\n    }\r\n    return Winner.undefined;\r\n  }\r\n\r\n  function isWinnerInCol (Player[3][3] memory _board) private pure returns (Winner winner) {\r\n    for (uint8 y = 0; y < 3; y++) {\r\n      if (\r\n        _board[0][y] == _board[1][y] &&\r\n        _board[1][y] == _board[2][y] &&\r\n        _board[0][y] != Player.emptySpace\r\n      ) {\r\n        if(_board[0][y] == Player.playerOne) return Winner.playerOne;\r\n        return Winner.playerTwo;\r\n      }\r\n    }\r\n    return Winner.undefined;\r\n  }\r\n\r\n  function isWinnerInDiagonal (Player[3][3] memory _board) private pure returns (Winner winner) {\r\n    if (\r\n      _board[0][0] == _board[1][1] &&\r\n      _board[1][1] == _board[2][2] &&\r\n      _board[0][0] != Player.emptySpace\r\n    ) {\r\n      if(_board[1][1] == Player.playerOne) return Winner.playerOne;\r\n      return Winner.playerTwo;\r\n    }\r\n\r\n    if (\r\n      _board[0][2] == _board[1][1] &&\r\n      _board[1][1] == _board[2][0] &&\r\n      _board[0][2] != Player.emptySpace\r\n    ) {\r\n      if(_board[1][1] == Player.playerOne) return Winner.playerOne;\r\n      return Winner.playerTwo;\r\n    }\r\n    return Winner.undefined;\r\n  }\r\n\r\n  function isBoardFull (Player[3][3] memory _board) private pure returns (bool isFull){\r\n    for (uint8 x = 0; x < 3; x++) {\r\n      for (uint8 y = 0; y < 3; y++) {\r\n        if (_board[x][y] == Player.emptySpace) return false;\r\n      }\r\n    }\r\n    return true;\r\n  }\r\n\r\n  function changePlayerTurn (Game storage _game) private {\r\n    if (_game.playerTurn == Player.playerOne) {\r\n      _game.playerTurn = Player.playerTwo;\r\n    } else {\r\n      _game.playerTurn = Player.playerOne;\r\n    }\r\n  }\r\n\r\n  function getGameData (uint256 _gameId) public view validGameId(_gameId)\r\n  returns (address winner, Player[3][3] memory board, address playerOne, address playerTwo){\r\n    Game storage game = games[_gameId];\r\n    if (game.winner == Winner.playerOne){\r\n      return (game.playerOne, game.board, game.playerOne, game.playerTwo);\r\n    } else if (game.winner == Winner.playerTwo) {\r\n      return (game.playerTwo, game.board, game.playerOne, game.playerTwo);\r\n    }\r\n    return (address(0), game.board, game.playerOne, game.playerTwo);\r\n  }\r\n\r\n  function getBoard (uint256 _gameId) public view validGameId(_gameId) returns (Player[3][3] memory board) {\r\n    Game storage game = games[_gameId] ;\r\n    return (game.board);\r\n  }\r\n\r\n  modifier validGameId(uint256 _gameId) {\r\n    require(gameListLarge >= _gameId, \"Invalid game id, please confirm it and try it again.\");\r\n    _;\r\n  }\r\n\r\n  modifier validGameOver(uint256 _gameId) {\r\n    Game storage game = games[_gameId];\r\n    require(game.winner == Winner.undefined, \"The game has already ended.\");\r\n    _;\r\n  }\r\n\r\n  modifier validPlayerTurn(uint256 _gameId) {\r\n    Game storage game = games[_gameId];\r\n    require(msg.sender == getCurrentPlayerTurn(game), \"It is not your turn.\");\r\n    _;\r\n  }\r\n}",
  "sourcePath": "C:\\Users\\itrmi\\Documents\\camilo_andres_gonzalez_castro\\git_repositories\\tictactoe_solidity\\contracts\\tictactoe.sol",
  "compiler": {
    "name": "solc",
    "version": "0.8.16+commit.07a7930e.Emscripten.clang"
  },
  "schemaVersion": "3.4.9",
  "updatedAt": "2022-08-31T13:46:22.040Z",
  "networkType": "ethereum",
  "devdoc": {
    "kind": "dev",
    "methods": {},
    "version": 1
  },
  "userdoc": {
    "kind": "user",
    "methods": {},
    "version": 1
  }
}